:020000040000FA
:060000000A128A11ED2F27
:100C0E007E088A007F0882000A128A1107260A12BD
:100C1E008A118000840A04087D0603190034FF0A35
:100C2E000319FE0A0B2EF600282E76088400000803
:100C3E000A128A11BA260A128A110130F5007508B5
:100C4E00F607760884002B3083130006031D302E22
:100C5E00312E1C2E0800533441344E344734443464
:100C6E0045345034203454345234613469342B3486
:100C7E000034003400340034003400340034533473
:100C8E0041344E3447344434453450345434523461
:100C9E004134493420340D340A342B3400340034BA
:100CAE00003400340034F200742E831203130C1E31
:100CBE00612E622E5C2E7208840083130008990048
:100CCE003430F100F130F000F00B6B2EF10B6B2E87
:100CDE00702E0130F0007008F207720884002B307D
:100CEE0083130006031D7C2E7D2E5C2E83120313B0
:100CFE000C1E822E832E7D2E0800F4008312031309
:100D0E000910891009157408F20004300310F20C52
:100D1E00FF3E031D8D2E72080A128A1129270A1210
:100D2E008A118312031309111A30F300F830F200FE
:100D3E00F20B9F2EF30B9F2E000083120313091547
:100D4E0074080A128A1129270A128A1183120313B0
:100D5E0009111A30F300F830F200F20BB42EF30B37
:100D6E00B42E00000800F400831203130914891036
:100D7E0009157408F20004300310F20CFF3E031D37
:100D8E00C32E72080A128A1129270A128A11831297
:100D9E00031309111A30F300F830F200F20BD52EBE
:100DAE00F30BD52E000083120313091574080A12D3
:100DBE008A1129270A128A118312031309111A3074
:100DCE00F300F830F200F20BEA2EF30BEA2E0000DD
:100DDE0008008316031388130813881208120910CB
:100DEE008910091183120313091089100915023095
:100DFE000A128A1129270A128A1183120313091162
:100E0E001A30F600F830F500F50B0B2FF60B0B2F02
:100E1E00000001300A128A1184260A128A11283023
:100E2E000A128A1184260A128A110F300A128A11A6
:100E3E0084260A128A1106300A128A1184260A1290
:100E4E008A110800F1007108F00003300310F00C55
:100E5E00FF3E031D2D2F7018352F392F83120313CC
:100E6E0088173C2F8312031388137108F000023089
:100E7E000310F00CFF3E031D3F2F7018472F4B2F12
:100E8E008312031308174E2F8312031308137108CE
:100E9E00F00001300310F00CFF3E031D512F7018AF
:100EAE00592F5D2F831203138816602F831203139D
:100EBE0088127118632F672F8312031308166A2F77
:100ECE0083120313081208008316031309121F0856
:100EDE0007389F000A128A11F0260A128A11203052
:100EEE000A128A111A260A128A118316031308117E
:100EFE0086120611061287148610831203138610AB
:100F0E000811831603131812181119309900831241
:100F1E000313981783160313981641308312031385
:100F2E0099000330F9000830F8007730F700F70B1E
:100F3E009E2FF80B9E2FF90B9E2F42308312031318
:100F4E00990018160B178B1318168C128C1EB02FB7
:100F5E00B12FAD2F1A08F7007708FA0041307A0644
:100F6E00031DBA2FBB2FBF2F043088060230860612
:100F7E0042307A06031DC42FC52FC92F2030860696
:100F8E000230860643307A06031DCE2FCF2FD32F85
:100F9E00103086060230860644307A06031DD82F9E
:100FAE00D92FDD2F043086060230860634300A1221
:100FBE008A115A260A128A11831203130C1EE82F65
:100FCE00E92FE32FAD2F0A128A1100288313483020
:100FDE00FD000630FE003230FF00203084000A1281
:100FEE008A110B260A128A11FA0183010A128A113A
:020FFE006B2F57
:02400E007A3FF7
:00000001FF
